{"abi":[{"type":"fallback","stateMutability":"payable"},{"type":"function","name":"FATHER_PERCENT","inputs":[],"outputs":[{"name":"","type":"uint256"}],"stateMutability":"view"},{"type":"function","name":"MAX_INVESTMENT","inputs":[],"outputs":[{"name":"","type":"uint256"}],"stateMutability":"view"},{"type":"function","name":"MULTIPLIER","inputs":[],"outputs":[{"name":"","type":"uint256"}],"stateMutability":"view"},{"type":"function","name":"TECH_AND_PROMO_PERCENT","inputs":[],"outputs":[{"name":"","type":"uint256"}],"stateMutability":"view"},{"type":"function","name":"currentReceiverIndex","inputs":[],"outputs":[{"name":"","type":"uint256"}],"stateMutability":"view"},{"type":"function","name":"getDeposit","inputs":[{"name":"idx","type":"uint256"}],"outputs":[{"name":"depositor","type":"address"},{"name":"deposit","type":"uint256"},{"name":"expect","type":"uint256"}],"stateMutability":"view"},{"type":"function","name":"getDeposits","inputs":[{"name":"depositor","type":"address"}],"outputs":[{"name":"idxs","type":"uint256[]"},{"name":"deposits","type":"uint128[]"},{"name":"expects","type":"uint128[]"}],"stateMutability":"view"},{"type":"function","name":"getDepositsCount","inputs":[{"name":"depositor","type":"address"}],"outputs":[{"name":"","type":"uint256"}],"stateMutability":"view"},{"type":"function","name":"getQueueLength","inputs":[],"outputs":[{"name":"","type":"uint256"}],"stateMutability":"view"},{"type":"function","name":"numInQueue","inputs":[{"name":"","type":"address"}],"outputs":[{"name":"","type":"uint256"}],"stateMutability":"view"}],"bytecode":{"object":"0x6080604052600060015534801561001557600080fd5b50610967806100256000396000f3006080604052600436106100a35763ffffffff7c0100000000000000000000000000000000000000000000000000000000600035041663059f8b16811461031b57806319e8c03f146103425780632d95663b14610363578063310e892414610378578063388736c91461038d5780634c76361e146103a257806394f649dd146103b75780639f9fb968146104b6578063b8f77005146104f6578063c67f7df51461050b575b6000806000341180156100ca575033737cdfa222f37f5c4cce49b3bbfc415e8c911d1cd814155b15610317576203d0905a101561014157604080517f08c379a000000000000000000000000000000000000000000000000000000000815260206004820152601460248201527f57652072657175697265206d6f72652067617321000000000000000000000000604482015290519081900360640190fd5b6729a2241af62c000034111561015657600080fd5b606434600602049150737cdfa222f37f5c4cce49b3bbfc415e8c911d1cd8825a6040519091906000818181858888f19350505050151561019557600080fd5b336000908152600260205260409020541561021157604080517f08c379a000000000000000000000000000000000000000000000000000000000815260206004820152601b60248201527f4f6e6c79206f6e65206465706f73697420617420612074696d65210000000000604482015290519081900360640190fd5b60408051606081018252338152346001608060020a0381166020830152600092820190606490606f026001608060020a03919004811690915282546001818101855560009485526020808620855160029485029091018054600160a060020a0390921673ffffffffffffffffffffffffffffffffffffffff1990921691909117815581860151920180546040968701518616608060020a029386166fffffffffffffffffffffffffffffffff19909116179094169190911790925583543385529152912055606434604051919004915073da149b17c154e964456553c749b7b4998c152c9e9082156108fc029083906000818181858888f193505050505061031761052c565b5050005b34801561032757600080fd5b506103306106b3565b60408051918252519081900360200190f35b34801561034e57600080fd5b50610330600160a060020a03600435166106b8565b34801561036f57600080fd5b506103306106ca565b34801561038457600080fd5b506103306106d0565b34801561039957600080fd5b506103306106d5565b3480156103ae57600080fd5b506103306106da565b3480156103c357600080fd5b506103d8600160a060020a03600435166106e6565b60405180806020018060200180602001848103845287818151815260200191508051906020019060200280838360005b83811015610420578181015183820152602001610408565b50505050905001848103835286818151815260200191508051906020019060200280838360005b8381101561045f578181015183820152602001610447565b50505050905001848103825285818151815260200191508051906020019060200280838360005b8381101561049e578181015183820152602001610486565b50505050905001965050505050505060405180910390f35b3480156104c257600080fd5b506104ce600435610876565b60408051600160a060020a039094168452602084019290925282820152519081900360600190f35b34801561050257600080fd5b506103306108cf565b34801561051757600080fd5b50610330600160a060020a03600435166108d9565b60015430319060005b6000548210156106a657600080548390811061054d57fe5b600091825260209091206002909102016001810154909150608060020a90046001608060020a03908116908416106106345780546001820154604051600160a060020a03909216916001608060020a03608060020a9092049190911680156108fc02916000818181858888f15050505060018201548254600160a060020a031660009081526002602052604081208190558054608060020a9092046001608060020a03169095039491508390811061060157fe5b600091825260208220600290910201805473ffffffffffffffffffffffffffffffffffffffff191681556001015561068d565b8054604051600160a060020a03909116906001608060020a03851680156108fc02916000818181858888f15050506001830180546001608060020a03608060020a80830482168990038216029116179055506106a69050565b61c3505a1161069b576106a6565b600190910190610535565b5060018054909101905550565b606f81565b60026020526000908152604090205481565b60015481565b600181565b600681565b6729a2241af62c000081565b60608060606000806000806106fa886108d9565b935083604051908082528060200260200182016040528015610726578160200160208202803883390190505b50965083604051908082528060200260200182016040528015610753578160200160208202803883390190505b50955083604051908082528060200260200182016040528015610780578160200160208202803883390190505b509450600084111561086b576000925060015491505b60005482101561086b5760008054839081106107ae57fe5b600091825260209091206002909102018054909150600160a060020a0389811691161415610860578187848151811015156107e557fe5b60209081029091010152600181015486516001608060020a039091169087908590811061080e57fe5b6001608060020a039283166020918202909201015260018201548651608060020a9091049091169086908590811061084257fe5b6001608060020a039092166020928302909101909101526001909201915b816001019150610796565b505050509193909250565b60008060008060008581548110151561088b57fe5b600091825260209091206002909102018054600190910154600160a060020a03909116966001608060020a038083169750608060020a909204909116945092505050565b6001546000540390565b60015460009081905b6000548110156109345783600160a060020a031660008281548110151561090557fe5b6000918252602090912060029091020154600160a060020a0316141561092c576001909101905b6001016108e2565b50929150505600a165627a7a72305820c045e57ddfb1ac660744094a510f1c2573934e7bf60cad38eb5d008c25fc966f0029","linkReferences":{}},"methodIdentifiers":{"FATHER_PERCENT()":"388736c9","MAX_INVESTMENT()":"4c76361e","MULTIPLIER()":"059f8b16","TECH_AND_PROMO_PERCENT()":"310e8924","currentReceiverIndex()":"2d95663b","getDeposit(uint256)":"9f9fb968","getDeposits(address)":"94f649dd","getDepositsCount(address)":"c67f7df5","getQueueLength()":"b8f77005","numInQueue(address)":"19e8c03f"},"storageLayout":{"storage":[],"types":{}},"id":0}